{
  "_format": "hh-sol-artifact-1",
  "contractName": "Token",
  "sourceName": "contracts/Token.sol",
  "abi": [
    {
      "anonymous": false,
      "inputs": [
        {
          "indexed": true,
          "internalType": "address",
          "name": "from",
          "type": "address"
        },
        {
          "indexed": true,
          "internalType": "address",
          "name": "to",
          "type": "address"
        },
        {
          "indexed": false,
          "internalType": "uint256",
          "name": "value",
          "type": "uint256"
        }
      ],
      "name": "Transfer",
      "type": "event"
    },
    {
      "inputs": [
        {
          "internalType": "address",
          "name": "",
          "type": "address"
        }
      ],
      "name": "balanceOf",
      "outputs": [
        {
          "internalType": "uint256",
          "name": "",
          "type": "uint256"
        }
      ],
      "stateMutability": "view",
      "type": "function"
    },
    {
      "inputs": [
        {
          "internalType": "address",
          "name": "to",
          "type": "address"
        },
        {
          "internalType": "uint256",
          "name": "value",
          "type": "uint256"
        }
      ],
      "name": "transfer",
      "outputs": [],
      "stateMutability": "nonpayable",
      "type": "function"
    }
  ],
  "bytecode": "0x608060405234801561001057600080fd5b50610251806100206000396000f3fe608060405234801561001057600080fd5b50600436106100365760003560e01c806370a082311461003b578063a9059cbb1461006d575b600080fd5b61005b61004936600461018d565b60006020819052908152604090205481565b60405190815260200160405180910390f35b61008061007b3660046101af565b610082565b005b336000908152602081905260409020548111156100dc5760405162461bcd60e51b8152602060048201526014602482015273496e73756666696369656e742062616c616e636560601b604482015260640160405180910390fd5b33600090815260208190526040812080548392906100fb9084906101ef565b90915550506001600160a01b03821660009081526020819052604081208054839290610128908490610208565b90915550506040518181526001600160a01b0383169033907fddf252ad1be2c89b69c2b068fc378daa952ba7f163c4a11628f55a4df523b3ef9060200160405180910390a35050565b80356001600160a01b038116811461018857600080fd5b919050565b60006020828403121561019f57600080fd5b6101a882610171565b9392505050565b600080604083850312156101c257600080fd5b6101cb83610171565b946020939093013593505050565b634e487b7160e01b600052601160045260246000fd5b81810381811115610202576102026101d9565b92915050565b80820180821115610202576102026101d956fea2646970667358221220437315b011334dec03410ea868d0123b3ddfb3c7c3bae319426c051db3aebb6e64736f6c63430008180033",
  "linkReferences": {},
  "deployedLinkReferences": {}
}